:100000000C9462000C948A000C948A000C948A0070
:100010000C948A000C948A000C948A000C94F902C7
:100020000C948A000C948A000C948A000C948A0028
:100030000C948A000C948A000C948A000C948A0018
:100040000C94D6030C948A000C948A000C948A00B9
:100050000C948A000C948A000C948A000C948A00F8
:100060000C948A000C948A000000000024002700F1
:100070002A0000000000250028002B0000000000DE
:1000800023002600290004040404040404040202DA
:100090000202020203030303030301020408102007
:1000A0004080010204081020010204081020000012
:1000B0000007000201000003040600000000000029
:1000C00000008C0011241FBECFEFD8E0DEBFCDBFF3
:1000D00011E0A0E0B1E0E8E5FBE002C005900D9280
:1000E000A038B107D9F711E0A0E8B1E001C01D9236
:1000F000AC3FB107E1F710E0C4ECD0E004C02297B8
:10010000FE010E94A605C23CD107C9F70E94C703A1
:100110000C94AA050C9400000F931F9380E891E0C3
:100120006DE070E04BE050E02CE030E001E010E0EA
:100130000E94310288ED91E06FE04EE02CEC30E05F
:100140000E94AF021F910F910895EF92FF920F93BB
:1001500088ED91E00E94970369E370E00E949005AA
:100160007093EB016093EA012CEC30E0261B370B17
:100170003093ED012093EC01C90164E670E00E9428
:1001800090056093F001C90164E670E00E9490055B
:100190009C016AE070E00E9490056093EF01C90144
:1001A0006AE070E00E9490058093EE0168EE73E0D3
:1001B00080E090E00E94440480E8E82E81E0F82E80
:1001C000C70160E070E040E050E02091EE0100E007
:1001D0000E949501C70160E070E041E050E020918D
:1001E000EF010E949501C70160E070E042E050E03D
:1001F0002091F00101E00E9495016AE070E080E04A
:1002000090E00E9444040F91FF90EF9008950F93A7
:100210001F9300E811E0C80160E070E040E00E9438
:100220001702C80160E070E048E050E00E94F3016E
:10023000C80160E070E00E94BE011F910F91089517
:100240008F929F92AF92BF92CF92DF92EF92FF92E6
:100250000F931F93DF93CF9300D0CDB7DEB77C0110
:1002600049832A83660F771F86E590E0E80EF91E22
:10027000F701008111818AEA9FEFE80EF91E000F55
:10028000111F80E090E005C0F701E80FF91F108210
:10029000019680179107C4F38981F701E60FF71FD4
:1002A00081838A818083F701EC5AFF4F808160E06F
:1002B0000E941B05015010406701C00ED11E0F5F48
:1002C0001F4F90E5892E912C8E0C9F1C82E5A82E45
:1002D000B12CAE0CBF1C0EC001501040F401808147
:1002E000F501608141E0F60120810E944E050894ED
:1002F000C108D108101611067CF384E590E0E80EE1
:10030000F91EF701808161E00E941B050F900F909C
:10031000CF91DF911F910F91FF90EF90DF90CF90E1
:10032000BF90AF909F908F9008950F93DC0177FD61
:1003300023C0AA5ABF4F8D919C911197A655B040EA
:1003400068177907CCF448305105B0F4E22FF0E09B
:10035000E050FF4F208101112068FB0103E0EE0F08
:10036000FF1F0A95E1F7EA0FFB1FE40FF51F208B33
:100370004F5FCD010E9420010F910895DF92EF920F
:10038000FF920F931F93CF93DF93EC017B0177FDD7
:1003900022C0CA5ADF4F88819981C655D04068175C
:1003A0007907CCF48B010E5F1F4F53E0000F111F34
:1003B0005A95E1F70C0F1D1FDD24D394F80111921B
:1003C0008F01CE01B7014D2D20E00E942001D39472
:1003D000F9E0DF1699F7DF91CF911F910F91FF9010
:1003E000EF90DF900895FC01242F77FD0DC0EA5AAD
:1003F000FF4F80819181E655F0406817790724F41A
:10040000CF014AE00E9420010895FC01242F77FDCE
:100410000DC0EA5AFF4F80819181E655F040681780
:10042000790724F4CF014BE00E9420010895FC01DC
:1004300077FD16C0EA5AFF4F80819181E655F04062
:10044000681779076CF4442331F0CF014CE020E0C9
:100450000E9420010895CF014CE021E00E9420017C
:100460000895CF92DF92EF92FF920F931F93CF9355
:10047000DF93EC016B01C05BDF4F69937993499384
:10048000599339832883C455D040C80101970897F0
:1004900010F008E010E0CA5ADF4F19830883C655F0
:1004A000D0408E01005B1F4FF801808161E00E9407
:1004B000AF04FE01EE5AFF4F808161E00E94AF045D
:1004C00074E5E72EF12CEC0EFD1EF701808161E052
:1004D0000E94AF04F701808161E00E941B05F801D2
:1004E000D182C082FE0180E090E0108A01963196B0
:1004F00080349105D1F700E010E066E5C62ED12CDE
:10050000CC0EDD1E1DC0CE01B8014FE020E00E94E0
:100510002001CE01B80147E050E00E940502CE0163
:10052000B80149E020E00E942001CE01B8010E94FC
:10053000BE01CE01B80141E00E9417020F5F1F4FBC
:10054000F6018081918108171907ECF2DF91CF91B4
:100550001F910F91FF90EF90DF90CF900895CF9370
:10056000DF93EC01862F90E0FC01E656FF4FE4910B
:10057000EC83A42FB0E0FD01E656FF4FE491ED833C
:100580008A579F4FFC01449150E0440F551FFA01D8
:10059000EE58FF4F859194919F838E83AA57BF4F4A
:1005A000FD018491E82FF0E0EE0FFF1FE458FF4FAC
:1005B000859194919B878A87FA01E859FF4F85912D
:1005C000949199878887F1E0253F3F0714F024EF45
:1005D00031E089E390E0AC01249FC001259F900D9C
:1005E000349F900D11244C969D878C87DF91CF917D
:1005F00008951F920F920FB60F9211242F933F93DD
:100600004F935F936F937F938F939F93AF93BF931A
:10061000EF93FF93E091F101F091F201309709F02F
:100620000995FF91EF91BF91AF919F918F917F912C
:100630006F915F914F913F912F910F900FBE0F904F
:100640001F901895CF93DF93EC01E885F9858081A1
:100650009C81892B8083EE81FF8190818C818095A4
:100660008923808384E090E00E946A04EE81FF8108
:1006700080819C81892B80838AE090E00E946A04BB
:10068000EE81FF8190818C81809589238083E8852C
:10069000F98590818C818095892380830E941E0436
:1006A000605B794B8F4F9F4F6E877F87888B998BCD
:1006B000EA85FB85208130E08D8190E02823392375
:1006C000232BC9F00E941E042E853F854889598935
:1006D000261737074807590770F0EACF0E941E0413
:1006E0002E853F85488959892617370748075907B6
:1006F00010F480E019C0EA85FB85208130E08D810F
:1007000090E028233923232B49F30E941E042C85D3
:100710003D8540E050E0260F371F481F591F2E87A8
:100720003F87488B598B81E0DF91CF910895CF931C
:10073000DF93EC010E942203882361F422C00E940F
:100740001E042E853F854889598926173707480793
:100750005907B8F0EA85FB85208130E08D8190E073
:1007600028233923232B59F70E941E044C855D85CD
:10077000455050402E853F85421B530B460F571F57
:1007800002C040E050E0CA01DF91CF910895CF93BD
:10079000DF930E9474040E940701C0E0D0E00E9431
:1007A000A5002097E1F30E940000F9CF1F920F925D
:1007B0000FB60F9211242F933F938F939F93AF9374
:1007C000BF938091F7019091F801A091F901B09148
:1007D000FA013091FB010196A11DB11D232F2D5F60
:1007E0002D3720F02D570196A11DB11D2093FB013F
:1007F0008093F7019093F801A093F901B093FA0167
:100800008091F3019091F401A091F501B091F6016E
:100810000196A11DB11D8093F3019093F401A09363
:10082000F501B093F601BF91AF919F918F913F91E8
:100830002F910F900FBE0F901F9018959FB7F894AF
:100840002091F3013091F4014091F5015091F601AE
:1008500086B5A89B06C08F3F21F02F5F3F4F4F4FBB
:100860005F4F9FBF542F432F322F2227280F311D58
:10087000411D511D82E0220F331F441F551F8A95D1
:10088000D1F7B901CA010895EF92FF920F931F9318
:10089000CF93DF937B018C010E941E04EB010EC0FD
:1008A0000E941E046C1B7D0B685E7340C8F30894A5
:1008B000E108F10801091109C851DC4FE114F10404
:1008C0000105110569F7DF91CF911F910F91FF90FD
:1008D000EF900895019739F0880F991F880F991F9D
:1008E00002970197F1F70895789484B5826084BDEA
:1008F00084B5816084BD85B5826085BD85B5816024
:1009000085BDEEE6F0E0808181608083E1E8F0E083
:100910001082808182608083808181608083E0E8B2
:10092000F0E0808181608083E1EBF0E08081846091
:100930008083E0EBF0E0808181608083EAE7F0E093
:1009400080818460808380818260808380818160F7
:1009500080838081806880831092C1000895CF9346
:10096000DF93482F50E0CA0186569F4FFC01349117
:100970004A575F4FFA018491882369F190E0880F0C
:10098000991FFC01E859FF4FA591B491FC01EE5865
:10099000FF4FC591D491662351F42FB7F8948C91F1
:1009A000932F909589238C93888189230BC0623083
:1009B00061F42FB7F8948C91932F909589238C93A1
:1009C0008881832B88832FBF06C09FB7F8948C91B2
:1009D000832B8C939FBFDF91CF910895833071F06B
:1009E000843028F48130A1F0823021F514C08630A3
:1009F000B1F08730D1F08430E9F404C080918000F8
:100A00008F7703C0809180008F7D80938000089550
:100A100084B58F7702C084B58F7D84BD08958091A1
:100A2000B0008F778093B00008958091B0008F7DE3
:100A30008093B0000895FF920F931F93F62E482FD6
:100A400050E0CA0182559F4FFC012491CA0186568D
:100A50009F4FFC0114914A575F4FFA010491002304
:100A6000C9F0222319F0822F0E94EE04E02FF0E05B
:100A7000EE0FFF1FEE58FF4FA591B4919FB7F8946A
:100A8000FF2021F48C911095812302C08C91812B41
:100A90008C939FBF1F910F91FF900895BF92CF92AB
:100AA000DF92EF92FF920F931F93CF93DF93E82E85
:100AB000F62EB42EC7E0D0E0022F10E087E0C82E5B
:100AC000D12CBB2059F4B6016C1B7D0BC80102C0B0
:100AD000959587956A95E2F7BC0107C0B8010C2E81
:100AE00002C0759567950A94E2F761708E2D0E9499
:100AF0001B058F2D61E00E941B058F2D60E00E9479
:100B00001B0521979FEFCF3FD907D9F6DF91CF91F2
:100B10001F910F91FF90EF90DF90CF90BF900895BD
:100B2000AA1BBB1B51E107C0AA1FBB1FA617B70713
:100B300010F0A61BB70B881F991F5A95A9F780952F
:100B40009095BC01CD010895EE0FFF1F0590F49123
:080B5000E02D0994F894FFCF99
:100B58007E306D79335B5F707F7B771F0D3D4F472C
:100B6800000000000000000000000000000000007D
:100B7800000000000000000000000000800180006C
:100B88007E306D79335B5F707F7B00000000000072
:100B980000771F0D3D4F4700370000000E00000092
:100BA80067000000000000000000000000000008CE
:100BB80000771F0D3D4F4700370000000E00000072
:100BC80067000000000000000000000000000000B6
:00000001FF
